:020000040040BA
:1000000098160020410440003D0440003D0440009B
:100010003D0440003D0440003D044000000000005D
:100020000000000000000000000000003D0440004F
:100030003D044000000000003D0440003D0440003D
:100040003D0440003D0440003D0440003D044000AC
:100050003D0440003D0440003D044000000000001D
:100060003D0440003D044000000000003D0440000D
:100070003D044000000000003D0440003D044000FD
:1000800000000000000000003D0440003D0440006E
:100090003D0440003D0440003D0440003D0440005C
:1000A0003D0440003D04400000000000000000004E
:1000B000000000003D0440003D0440003D044000BD
:1000C0003D0440003D0440003D0440000348044B13
:1000D000834202D0034B03B11847704760264000AB
:1000E0006026400000000000054806490B1AD90FA1
:1000F00001EBA301491002D0034B03B1184770472D
:1001000060264000602640000000000010B5064C4C
:10011000237843B9FFF7DAFF044B13B10448AFF378
:1001200000800123237010BD6C000020000000003F
:100130006026400008B5044B1BB104490448AFF3E6
:100140000080BDE80840CFE70000000070000020FC
:1001500060264000F8B5054F06460D460024AC4227
:1001600000DBF8BDB84730550134F8E7ED05400035
:10017000F8B5054F06460D460024AC4200DBF8BD3D
:10018000305DB8470134F8E7D105400070B5002371
:10019000934200DB70BD01EB43160725C45C2C4184
:1001A00004F00104013D46F8044BF7D20133EFE7B8
:1001B000002370B502464D1E184601268B4200DB17
:1001C00070BD42FA03F4E40742BFEC1A06FA04F4E5
:1001D00020430133F2E700002DE9F843114F0E46AA
:1001E000054611460024B44201DBBDE8F8832046F1
:1001F000B847844213DA05EBC40205EBC00355F897
:1002000034E0D2F804C055F83090D3F8048045F8B3
:100210003490C2F8048045F830E0C3F804C00134DB
:10022000E1E700BFB10140002DE9F04F8DB0054678
:10023000029208930846484B484C88469847484BDA
:10024000984743A3D3E90023A047464B9847464B22
:100250009847464B03900246414628469847029BE2
:100260000BB1434B98470126039B9E4202DD0DB024
:10027000BDE8F08F0123721E03FA02FAB340049323
:100280004FF0000948FA06F3079354464F46D1450C
:1002900001DA44450CDD012E58D1089B002B55D0C6
:1002A000029B002BE3D0334B0DB0BDE8F04F184755
:1002B000022E03D1029B0BB12E4B9847079B2E4871
:1002C000DFF8B8C055F837B003FB09F105EBC703F9
:1002D00000EBC1025B68069305EBC40350F83110D4
:1002E0005B68526800930AA855F83430E0470A9BCF
:1002F0000B9A0993184605925946214A9047059949
:1003000045F837001E4A0698904705EBC7031D4A7B
:100310005860099B5846194690471A4A45F83400D8
:1003200005990698904705EBC403049A5860013478
:10033000049B94FBF3F302FB134301371BB109F158
:1003400001039946A3E757445444FAE701368BE783
:10035000EF39FAFE422EE63F91124000B9154000F7
:100360006D0B4000D90A4000C5184000D90140007B
:1003700051064000310640003C244000D11D4000A1
:10038000211940001D1940002DE9F047104EDFF8FB
:100390004490DFF844A007460C4600254FF00008C3
:1003A000A54206F1080608DB21460C4C084801234B
:1003B000A4461A46BDE8F047604757F82500C847ED
:1003C0004146D047013546F8080C46F8048CE7E76B
:1003D00098020020891A400021194000290240009B
:1003E00008B50D4B0D4C0E4D98470E4B98470E4BD4
:1003F000984720460D4B1021984720460C4B102162
:100400009847294620460B4B102298470A4B8021DB
:1004100028469847EDE700BFD50440008802002039
:10042000880000206D054000110640005501400085
:10043000710140008D01400089034000FEE700008B
:1004400019491A48814210B520D9194BDA1C121AE1
:1004500022F00302C41EA34238BF0022154B984766
:1004600000BF154B1548DA1C121AC11E22F00302F8
:10047000994288BF0022124B00219847114B124A23
:100480009A60124B9847124B9847FEE7E8D2084B08
:100490000A1F181A1044C1F10401C842E0D050F8F4
:1004A000042943F8042DF8E76026400000000020EE
:1004B0006C00002065224000980600206C0000209F
:1004C0009923400000ED00E0000040001D224000A4
:1004D000E1034000184B4FF4004270B500205A650C
:1004E000164D174C174EA8470120A8470520A847CE
:1004F000154B002098471548A047154B00209847FA
:10050000144B3E2101209847B0470028FCD0124BE5
:1005100000209847114B98471148A047114A13688B
:1005200023F0806313600B20A847BDE870400E4B9A
:100530004FF060510F20184700140E407D0A400014
:10054000390940006D0A4000BD0A4000000E27072F
:100550009D094000210A4000DD0940006D0840006F
:1005600010757000000A0E40C10740001FB5104B07
:10057000104C4FF41642CDE901324FF4006303935F
:1005800008200D4B984701A90C4B20469847204660
:100590000B4B98470B4B204698470B4C0B490920B7
:1005A000A0474FF000610A20A04704B010BD00BF73
:1005B00090AD710000060E407D0A400071064000BB
:1005C000AB064000A5064000C1074000010000083E
:1005D00070B5044E044D044621463046A847002815
:1005E000FAD170BD00060E40B106400037B5064D89
:1005F000064C0DF107012846A0470028F9D19DF8C7
:10060000070003B030BD00BF00060E40BF0640002B
:1006100010B5054B0B209847BDE81040034B4FF039
:1006200040510720184700BF7D0A4000C107400025
:1006300010B5054B07209847BDE81040034B4FF01D
:1006400040510720184700BFA7074000C1074000DE
:1006500010B5054B07209847BDE81040034B4FF0FD
:1006600060510720184700BF8D074000C1074000B8
:10067000AC2310B50360D1E90032B3FBF2F31B09E0
:100680005C1E4FF6FE7294420AD803628B68436088
:1006900040F20223C0F8203150230360002010BD37
:1006A0000120FCE74023036070471023036070477C
:1006B00043699B0746BFC161002001207047436921
:1006C000DB0743BF83690B70002001207047B1F145
:1006D000C05F426426D007D8B1F1006F12D0B1F1EB
:1006E000805F1CD061B97047B1F1005F23D007D3A0
:1006F000B1F1405F05D021F08051B1F1205F00D011
:1007000042607047016F036F0B4023EA02030367E7
:10071000416F436F0B4023EA02034367F0E7036F27
:100720001343F4E7016F036F0B4023EA02030367EF
:10073000436F1343F1E7036F1343F8E7D3074164B3
:100740004CBF4166016612F00A0F14BF016241629C
:10075000930704D5C0F8801041610160704713070A
:1007600048BFC0F88410F7E710B5029C41643CB163
:1007700041663BB101653AB101630161016010BDA1
:100780000166F6E74165F6E74163F6E7430903F5DD
:10079000001303F207735B0200F01F00012202FA4C
:1007A00000F018637047430903F5001303F2077361
:1007B0005B0200F01F00012202FA00F0586370474C
:1007C00073B5044640090D4600F5001001F0F041F4
:1007D00000F20770B1F1005F4FEA40201ED00CD844
:1007E000B1F1805F1AD0B1F1C05F17D0B1F1006FE5
:1007F00014D00026304602B070BD05F0E043B3F1DE
:10080000405F19D0B1F1205FF3D104F01F0401263D
:10081000134B2A4606FA04F19847EBE704F01F024F
:10082000012404FA02F20F4B984715EA040612BF9E
:10083000426602662646DDE705F06052012602F1B7
:10084000484105EA06034A4204F01F0400934A4166
:10085000C5F3800306FA04F1034CA047CAE700BFC2
:100860003D074000CF0640006907400010B52C4A04
:100870002C4B116B01F0030101292AD00239012907
:100880001DD8116ACC0148D427491960116A01F0BA
:10089000700110293ED020293FD0106B196800F05C
:1008A000030002280BBF946AD46A906AD06AC4F32A
:1008B0000A4404FB0111C0B2B1FBF0F107E01B498F
:1008C000496A08064CBF4FF400414FF4FA411960E1
:1008D0000DE0116AC90101D51549F8E712491960FF
:1008E000116A01F07001102912D02029F4D0106B88
:1008F000196800F0700070281BBF126BC2F302125F
:10090000032221FA02F208BFB1FBF2F21A6010BD15
:100910000849DCE707491960BFE70549FBE700BF65
:1009200000040E400000002000093D0000140E40AD
:10093000001BB70000127A000E4B98420E4B03D8F2
:100940004FF080621A6070470C4A904201D20C4A04
:10095000F8E70C4A904201D20B4AF3E70B4A904267
:1009600001D80B4AEEE70B4A90428CBF0A4A4FF07F
:100970000422E7E7FF2C3101000A0E40005A620210
:10098000000100040087930300020004FFB3C404C5
:1009900000030004FFE0F505000500040E4B1A6B90
:1009A00022F003021A6340F60102996E09070BD583
:1009B0001A6B22F070021043186340F60102996E20
:1009C000090705D500207047013AEED10120704794
:1009D000013AF4D1FAE700BF00040E400F4B1A6B46
:1009E00022F0030242F001021A6340F60102996EFE
:1009F00009070BD51A6B22F070021043186340F6FA
:100A00000102996E090705D500207047013AEED121
:100A100001207047013AF4D1FAE700BF00040E400C
:100A20000F4A30B1136A0F4919400F4B0B43136241
:100A30007047106A0B0220F45C119BB221F0030195
:100A40000B4343F45C1343F001031362936EDB0723
:100A5000FCD5136A43F09B7343F48033E7E700BF90
:100A600000040E40FCFFC8FE02003701024B986EE6
:100A700000F48030704700BF00040E40222818D8D0
:100A80001F280D4A4FF0010308D8916903FA00F0BE
:100A900030EA010300D0106100207047D2F808113D
:100AA000203803FA00F030EA0103F5D0C2F8000163
:100AB000F2E70120704700BF00040E40034B18B15D
:100AC000034AC3F8E4207047024AFAE700040E40E4
:100AD00001434D5000434D5038B5C1F30A55A5F2BE
:100AE000FF32132A0B4684468E4604461EDC002A3B
:100AF0000EDB1D49114103EA0100204313D04FF4DE
:100B0000002343FA02F296442EEA010E002408E084
:100B100001F0004E013204BF4EF07F5E4EF4401EE5
:100B200000247346A4466046194638BD332A08DDC2
:100B3000B2F5806FF7D1024600F05EFA84460B46AC
:100B4000F1E7A5F213454FF0FF3121FA05F52842F0
:100B5000E9D00123C2F1330203FA02F2841828BF5C
:100B60009E4424EA0504DCE7FFFF0F00F8B50446C5
:100B70000D4600F035F8174B93F900300133064667
:100B80000F461AD022462B462046294600F084FE06
:100B900098B9002200232046294600F073FE60B970
:100BA000002200232046294600F044FE40B101F017
:100BB0002FFB094F22230360002630463946F8BD3B
:100BC00001F026FB034621221A600448BDE8F840E4
:100BD00000F006BA040000200000F0FF3C264000B0
:100BE0002DE9F04FB1F5801F87B002460B460F4646
:100BF00058DA21F00044044300F0F8800029C0F2E4
:100C00003281D74B002200F0ADFB0F460B46D54991
:100C10008F4202466FF0350049DC3E15C7F31307DB
:100C200007F51521A6F2FF3601F66471064401F4BA
:100C3000801106EB115681F07F5181F4401141EA99
:100C40000703104619460022C74B00F0D3F9BB1C1E
:100C5000C3F31303022B82468B462FDC00220023B2
:100C600000F0E8FD002800F0CA80002E00F04B8163
:100C7000304600F00DFBA6A3D3E9002306460F463D
:100C800000F070FBA4A3D3E9002304460D463046D0
:100C9000394600F067FB02460B462046294600F025
:100CA000ABF908E0AF498F424FF00000B5DD1046C8
:100CB000194600F0A1F907B0BDE8F08FA7F5C223EF
:100CC000A3F27A43019300224FF0804300F094F99D
:100CD00002460B465046594600F06EFC044630462C
:100CE0000D4600F0D5FA2246CDE904012B462046F8
:100CF0002946CDE9024500F035FB02460B46804609
:100D0000894600F02FFB86A3D3E9002304460D4655
:100D100000F028FB84A3D3E9002300F06DF92246FC
:100D20002B4600F01FFB82A3D3E9002300F064F9F7
:100D300022462B4600F016FB7FA3D3E9002300F0E8
:100D40005BF942464B4600F00DFB7DA3D3E900233F
:100D5000804689462046294600F004FB7AA3D3E961
:100D6000002300F049F922462B4600F0FBFA78A355
:100D7000D3E9002300F040F922462B4600F0F2FAB6
:100D80000B4602464946404600F036F9C7F5D727DC
:100D9000019B51371F43002F8046894655DD734B19
:100DA00000225046594600F0DDFA52465B4600F0FC
:100DB000D9FA04460D46002E5CD122462B46404609
:100DC000494600F019F9DDE9022300F0CBFA0246AA
:100DD0000B462046294600F00DF902460B465046C8
:100DE000594600F007F907B0BDE8F08F0022002354
:100DF0005F49002000F0E0FB07B0BDE8F08F56A38C
:100E0000D3E900235046594600F0ACFA02460B469F
:100E10000020564900F0EEF8524604460D465B4667
:100E20005046594600F09EFA02460B462046294697
:100E300000F098FA04460D46002E50D102460B46AB
:100E40005046594600F0D6F835E7002E40F0928023
:100E500002460B465046594600F0CCF8DDE9022325
:100E600000F080FAB9E700F0C5F80022002300F096
:100E7000A3FB20E726A3D3E90023DDE9040100F06A
:100E800071FA22462B4606460F464046494600F078
:100E9000B3F8DDE9022300F065FA1FA3D3E90023CC
:100EA00080468946DDE9040100F05CFA02460B4603
:100EB0004046494600F0A0F802460B462046294627
:100EC00000F098F852465B4600F094F802460B4654
:100ED0003046394600F08EF807B0BDE8F08F304656
:100EE00000F0D6F90AA3D3E900238046894600F032
:100EF00039FA09A3D3E9002306460F46404649467E
:100F000000F030FAD8E700200021D4E6AFF30080EB
:100F10000000E0FE422EE63F763C7935EF39EA3DAF
:100F200044523EDF12F1C23FDE03CB966446C73F18
:100F3000599322942449D23F935555555555E53F31
:100F40009FC678D0099AC33FAF788E1DC571CC3F3C
:100F500004FA97999999D93F555555555555D53F07
:100F600000005043FFFFEF7F0000F03F0000E03F34
:100F7000000050C316A3D3E90023DDE9040100F00B
:100F8000F1F942464B4604460D465046594600F09C
:100F900031F8DDE9022300F0E5F90FA3D3E90023DE
:100FA00006460F46DDE9040100F0DCF902460B4677
:100FB0003046394600F01EF852465B4600F01AF8FB
:100FC00002460B462046294600F014F873E600BF9F
:100FD0000000E0FE422EE63F763C7935EF39EA3DEF
:100FE00001490020704700BF0000F87F81F00041F8
:100FF00002E000BF83F0004330B54FEA41044FEAFE
:10100000430594EA050F08BF90EA020F1FBF54EA98
:10101000000C55EA020C7FEA645C7FEA655C00F034
:10102000E2804FEA5454D4EB5555B8BF6D420CDD05
:101030002C4480EA020281EA030382EA000083EA88
:10104000010180EA020281EA0303362D88BF30BD28
:1010500011F0004F4FEA01314FF4801C4CEA11317E
:1010600002D0404261EB410113F0004F4FEA0333DD
:101070004CEA133302D0524263EB430394EA050F68
:1010800000F0A780A4F10104D5F1200E0DDB02FAD7
:101090000EFC22FA05F2801841F1000103FA0EF26B
:1010A000801843FA05F359410EE0A5F120050EF131
:1010B000200E012A03FA0EFC28BF4CF0020C43FA62
:1010C00005F3C01851EBE37101F0004507D54FF06F
:1010D000000EDCF1000C7EEB00006EEB0101B1F5BF
:1010E000801F1BD3B1F5001F0CD349085FEA300005
:1010F0004FEA3C0C04F101044FEA445212F5800F10
:1011000080F09A80BCF1004F08BF5FEA500C50F1AC
:10111000000041EB045141EA050130BD5FEA4C0C8F
:10112000404141EB0101013C28BFB1F5801FE9D2EC
:1011300091F0000F04BF01460020B1FA81F308BF0F
:101140002033A3F10B03B3F120020CDA0C3208DDDB
:1011500002F1140CC2F10C0201FA0CF021FA02F1B6
:101160000CE002F11402D8BFC2F1200C01FA02F126
:1011700020FA0CFCDCBF41EA0C019040E41AA2BF4B
:1011800001EB0451294330BD6FEA04041F3C1CDA13
:101190000C340EDC04F11404C4F1200220FA04F033
:1011A00001FA02F340EA030021FA04F345EA0301DD
:1011B00030BDC4F10C04C4F1200220FA02F001FA9F
:1011C00004F340EA0300294630BD21FA04F0294621
:1011D00030BD94F0000F83F4801306BF81F48011BA
:1011E0000134013D4EE77FEA645C18BF7FEA655C2D
:1011F00029D094EA050F08BF90EA020F05D054EAFF
:10120000000C04BF1946104630BD91EA030F1EBF03
:101210000021002030BD5FEA545C05D14000494107
:1012200028BF41F0004130BD14F580043CBF01F5FA
:10123000801130BD01F0004545F0FE4141F47001E0
:101240004FF0000030BD7FEA645C1ABF19461046BB
:101250007FEA655C1CBF0B46024650EA013406BFBC
:1012600052EA033591EA030F41F4002130BD00BF7B
:1012700090F0000F04BF0021704730B54FF4806438
:1012800004F132044FF000054FF0000150E700BFB9
:1012900090F0000F04BF0021704730B54FF4806418
:1012A00004F1320410F0004548BF40424FF0000105
:1012B0003EE700BF42004FEAE2014FEA31014FEA48
:1012C00002701FBF12F07F4393F07F4F81F0605197
:1012D000704732F07F4208BF704793F07F4F04BFE2
:1012E00041F40021704730B54FF4607401F00045BF
:1012F00021F000411CE700BF50EA010208BF70471F
:1013000030B54FF000050AE050EA010208BF70470F
:1013100030B511F0004502D5404261EB41014FF478
:10132000806404F132045FEA915C3FF4D8AE4FF080
:1013300003025FEADC0C18BF03325FEADC0C18BF63
:10134000033202EBDC02C2F1200300FA03FC20FAB4
:1013500002F001FA03FE40EA0E0021FA02F1144401
:10136000BDE600BF70B54FF0FF0C4CF4E06C1CEA1A
:1013700011541DBF1CEA135594EA0C0F95EA0C0F8B
:1013800000F0DEF82C4481EA030621EA4C5123EAFE
:101390004C5350EA013518BF52EA033541F480112D
:1013A00043F4801338D0A0FB02CE4FF00005E1FBE0
:1013B00002E506F00042E0FB03E54FF00006E1FB2A
:1013C00003569CF0000F18BF4EF0010EA4F1FF046D
:1013D000B6F5007F64F5407404D25FEA4E0E6D41AD
:1013E00046EB060642EAC62141EA55514FEAC520BE
:1013F00040EA5E504FEACE2EB4F1FD0C88BFBCF53A
:10140000E06F1ED8BEF1004F08BF5FEA500E50F1EA
:10141000000041EB045170BD06F0004646EA0101B0
:1014200040EA020081EA0301B4EB5C04C2BFD4EBE2
:101430000C0541EA045170BD41F480114FF0000EDB
:10144000013C00F3AB8014F1360FDEBF002001F049
:10145000004170BDC4F10004203C35DA0C341BDCC3
:1014600004F11404C4F1200500FA05F320FA04F095
:1014700001FA05F240EA020001F0004221F00041C9
:1014800010EBD37021FA04F642EB06015EEA430E3C
:1014900008BF20EAD37070BDC4F10C04C4F120056C
:1014A00000FA04F320FA05F001FA04F240EA02001F
:1014B00001F0004110EBD37041F100015EEA430EF0
:1014C00008BF20EAD37070BDC4F1200500FA05F210
:1014D0004EEA020E20FA04F301FA05F243EA02038F
:1014E00021FA04F001F0004121FA04F220EA02009E
:1014F00000EBD3705EEA430E08BF20EAD37070BDE4
:1015000094F0000F0FD101F00046400041EB0101C3
:1015100011F4801F08BF013CF7D041EA060195F0A5
:10152000000F18BF704703F00046520043EB03035F
:1015300013F4801F08BF013DF7D043EA060370474C
:1015400094EA0C0F0CEA135518BF95EA0C0F0CD057
:1015500050EA410618BF52EA4306D1D181EA03019D
:1015600001F000414FF0000070BD50EA410606BF97
:101570001046194652EA430619D094EA0C0F02D1DC
:1015800050EA013613D195EA0C0F05D152EA033621
:101590001CBF104619460AD181EA030101F000413F
:1015A00041F0FE4141F470014FF0000070BD41F088
:1015B000FE4141F4780170BD70B54FF0FF0C4CF462
:1015C000E06C1CEA11541DBF1CEA135594EA0C0F81
:1015D00095EA0C0F00F0A7F8A4EB050481EA030ECE
:1015E00052EA03354FEA013100F088804FEA0333B5
:1015F0004FF0805545EA131343EA12634FEA022283
:1016000045EA111545EA10654FEA00260EF0004143
:101610009D4208BF964244F1FD0404F5407402D295
:101620005B084FEA3202B61A65EB03055B084FEA26
:1016300032024FF480104FF4002CB6EB020E75EB23
:10164000030E22BFB61A754640EA0C005B084FEA4B
:101650003202B6EB020E75EB030E22BFB61A7546C8
:1016600040EA5C005B084FEA3202B6EB020E75EB13
:10167000030E22BFB61A754640EA9C005B084FEA8B
:101680003202B6EB020E75EB030E22BFB61A754698
:1016900040EADC0055EA060E18D04FEA051545EA87
:1016A00016754FEA06164FEAC30343EA52734FEA30
:1016B000C2025FEA1C1CC0D111F4801F0BD141EAA9
:1016C00000014FF000004FF0004CB6E711F4801F0E
:1016D00004BF01430020B4F1FD0C88BFBCF5E06FEE
:1016E0003FF6AFAEB5EB030C04BFB6EB020C5FEAFE
:1016F000500C50F1000041EB045170BD0EF0004E53
:101700004EEA113114EB5C04C2BFD4EB0C0541EA84
:10171000045170BD41F480114FF0000E013C90E681
:1017200045EA060E8DE60CEA135594EA0C0F08BF45
:1017300095EA0C0F3FF43BAF94EA0C0F0AD150EA44
:1017400001347FF434AF95EA0C0F7FF425AF1046D7
:1017500019462CE795EA0C0F06D152EA03353FF4FF
:10176000FDAE1046194622E750EA410618BF52EA7C
:1017700043067FF4C5AE50EA41047FF40DAF52EA50
:1017800043057FF4EBAE12E74FF0FF3C06E000BFED
:101790004FF0010C02E000BF4FF0010C4DF804CDFA
:1017A0004FEA410C7FEA6C5C4FEA430C18BF7FEABA
:1017B0006C5C1BD001B050EA410C0CBF52EA430CE8
:1017C00091EA030F02BF90EA020F0020704710F168
:1017D000000F91EA030F58BF994208BF90422CBFF7
:1017E000D8176FEAE37040F0010070474FEA410CF0
:1017F0007FEA6C5C02D150EA013C07D14FEA430C0E
:101800007FEA6C5CD6D152EA033CD3D05DF8040B7E
:10181000704700BF8446104662468C4619466346B0
:1018200000E000BF01B5FFF7B7FF002848BF10F187
:10183000000F01BD4DF808EDFFF7F4FF0CBF0120CC
:1018400000205DF808FB00BF4DF808EDFFF7EAFF48
:1018500034BF012000205DF808FB00BF4DF808ED03
:10186000FFF7E0FF94BF012000205DF808FB00BFF8
:101870004DF808EDFFF7CEFF94BF012000205DF882
:1018800008FB00BF4DF808EDFFF7C4FF34BF01208F
:1018900000205DF808FB00BF4FEA410C7FEA6C5C5A
:1018A00002D150EA013C0AD14FEA430C7FEA6C5C5A
:1018B00002D152EA033C02D14FF0000070474FF0D2
:1018C000010070474FEA410212F5001215D211D5FE
:1018D0006FF47873B3EB625212D94FEAC12343F02D
:1018E000004343EA505311F0004F23FA02F018BFAF
:1018F000404270474FF00000704750EA013005D178
:1019000011F0004008BF6FF0004070474FF000003A
:10191000704700BF80F0004002E000BF81F000414E
:1019200042001FBF5FEA410392EA030F7FEA226C85
:101930007FEA236C6AD04FEA1262D2EB1363C1BF15
:10194000D218414048404140B8BF5B42192B88BF84
:10195000704710F0004F40F4000020F07F4018BFA7
:10196000404211F0004F41F4000121F07F4118BFC7
:10197000494292EA030F3FD0A2F1010241FA03FC6F
:1019800010EB0C00C3F1200301FA03F100F0004357
:1019900002D5494260EB4000B0F5000F13D3B0F11F
:1019A000807F06D340084FEA310102F10102FE2A8E
:1019B00051D2B1F1004F40EBC25008BF20F00100FE
:1019C00040EA03007047490040EB0000013A28BF9D
:1019D000B0F5000FEDD2B0FA80FCACF1080CB2EB20
:1019E0000C0200FA0CF0AABF00EBC250524218439E
:1019F000BCBFD0401843704792F0000F81F4000143
:101A000006BF80F400000132013BB5E74FEA410315
:101A10007FEA226C18BF7FEA236C21D092EA030F81
:101A200004D092F0000F08BF0846704790EA010FFB
:101A30001CBF0020704712F07F4F04D1400028BF28
:101A400040F00040704712F100723CBF00F500000A
:101A5000704700F0004343F0FE4040F40000704740
:101A60007FEA226216BF08467FEA236301464202EC
:101A700006BF5FEA412390EA010F40F480007047FF
:101A80004FF0000304E000BF10F0004348BF4042A5
:101A90005FEA000C08BF704743F0964301464FF0E1
:101AA00000001CE050EA010208BF70474FF000033D
:101AB0000AE000BF50EA010208BF704711F000437E
:101AC00002D5404261EB41015FEA010C02BF84464E
:101AD0000146002043F0B64308BFA3F18053A3F5AD
:101AE0000003BCFA8CF2083AA3EBC25310DB01FAF4
:101AF00002FC634400FA02FCC2F12002BCF1004F78
:101B000020FA02F243EB020008BF20F00100704708
:101B100002F1200201FA02FCC2F1200250EA4C005C
:101B200021FA02F243EB020008BF20EADC707047A2
:101B30004FF0FF0C1CEAD0521EBF1CEAD15392EAB0
:101B40000C0F93EA0C0F6FD01A4480EA010C40028C
:101B500018BF5FEA41211ED04FF0006343EA5010E6
:101B600043EA5111A0FB01310CF00040B1F5000F28
:101B70003EBF490041EAD3715B0040EA010062F1D7
:101B80007F02FD2A1DD8B3F1004F40EBC25008BFC1
:101B900020F00100704790F0000F0CF0004C08BFDF
:101BA00049024CEA502040EA51207F3AC2BFD2F1AC
:101BB000FF0340EAC250704740F400004FF00003BA
:101BC000013A5DDC12F1190FDCBF00F000407047F4
:101BD000C2F10002410021FA02F1C2F1200200FA32
:101BE00002FC5FEA310040F1000053EA4C0308BFF9
:101BF00020EADC70704792F0000F00F0004C02BF4A
:101C0000400010F4000F013AF9D040EA0C0093F0C4
:101C1000000F01F0004C02BF490011F4000F013B1E
:101C2000F9D041EA0C018FE70CEAD15392EA0C0F8C
:101C300018BF93EA0C0F0AD030F0004C18BF31F0F7
:101C4000004CD8D180EA010000F00040704790F0CD
:101C5000000F17BF90F0004F084691F0000F91F071
:101C6000004F14D092EA0C0F01D142020FD193EA37
:101C70000C0F03D14B0218BF084608D180EA0100BF
:101C800000F0004040F0FE4040F40000704740F09B
:101C9000FE4040F4400070474FF0FF0C1CEAD05269
:101CA0001EBF1CEAD15392EA0C0F93EA0C0F69D0C5
:101CB000A2EB030280EA010C49024FEA402037D030
:101CC0004FF0805343EA111143EA10130CF0004027
:101CD0008B4238BF5B0042F17D024FF4000C8B4217
:101CE00024BF5B1A40EA0C00B3EB510F24BFA3EBF7
:101CF000510340EA5C00B3EB910F24BFA3EB9103C7
:101D000040EA9C00B3EBD10F24BFA3EBD10340EA20
:101D1000DC001B0118BF5FEA1C1CE0D1FD2A3FF666
:101D200050AF8B4240EBC25008BF20F0010070471B
:101D30000CF0004C4CEA50207F32C2BFD2F1FF03BE
:101D400040EAC250704740F400004FF00003013AEF
:101D500037E792F0000F00F0004C02BF400010F493
:101D6000000F013AF9D040EA0C0093F0000F01F0A7
:101D7000004C02BF490011F4000F013BF9D041EAC9
:101D80000C0195E70CEAD15392EA0C0F08D14202FC
:101D90007FF47DAF93EA0C0F7FF470AF084676E7CF
:101DA00093EA0C0F04D14B023FF44CAF08466EE7A8
:101DB00030F0004C18BF31F0004CCAD130F0004276
:101DC0007FF45CAF31F000437FF43CAF5FE700BFCE
:101DD0002DE9F04F8B4687B0194605465846164602
:101DE0001F46FFF7A5FE109980463046FFF7A0FE7C
:101DF000109981465846FFF79BFE31468246384689
:101E0000FFF796FE494602904046FFF787FD02998C
:101E100004465046FFF784FD21460190204600F01D
:101E2000E1F930B9019B2C6028466B6007B0BDE832
:101E3000F08F0199084600F0D5F90028F2D02BF078
:101E4000004318469E49039300F0CCF9039B4FF0E2
:101E5000010240B918469A49049200F0A5F9DDE95B
:101E6000033200B9024682F00102D2B294490492D0
:101E70001846039300F0B6F938B9039B9049184609
:101E800000F092F9002800F0898026F000438C4988
:101E90000393184600F0A6F930B9039B8849184609
:101EA00000F082F9002879D00023059327F0004341
:101EB00083490393184600F095F9002840F09D806F
:101EC0007F49039800F070F9002840F09680109B3D
:101ED00023F000430493DDF80C807949404600F07C
:101EE00081F94FF0010428B97549404600F05CF9CA
:101EF00000B9044684F0010000F00100FFF7C4FDC2
:101F0000DDF810806E4960F31E07404600F06AF964
:101F10004FF0010428B96A49404600F045F900B97C
:101F2000044684F0010000F00100FFF7ADFD109BB6
:101F3000594660F31E035846109300F053F90028E9
:101F400040F0CA803146304600F04CF9002840F09D
:101F5000C08039465846FFF7EBFD109904463046DD
:101F6000FFF7E6FD01462046FFF7D8FC4FF0FF41A2
:101F7000FFF7DEFD109904465846FFF7D9FD3946B4
:101F800080463046FFF7D4FD01464046FFF7C8FCC7
:101F90004FF0FF41FFF7CCFD019043E70498FFF7B6
:101FA00073FD26F000434649039360F31E0B184669
:101FB00000F018F94FF0010240B9039B4049049228
:101FC000184600F0F1F8049A00B9024682F00102C6
:101FD00002F00100FFF758FD394660F31E0638464F
:101FE00000F000F900287AD11099084600F0FAF8BC
:101FF000002867D10123059358E7109B304923F04F
:1020000000431846049300F0EDF830B92C490498C9
:1020100000F0CAF800283FF45EAF059B002B98D172
:1020200028F000482649404600F0DCF820B9244951
:10203000404600F0B9F840B329F00049204948462D
:1020400000F0D0F820B91E49484600F0ADF8E0B1E4
:102050002AF0004A1A49504600F0C4F820B918493D
:10206000504600F0A1F880B1029B154923F00048CA
:10207000404600F0B7F800287FF4D4AE104940463F
:1020800000F092F800287FF4CDAE5946584600F093
:10209000A9F868BB3146304600F0A4F828BB3946A1
:1020A000384600F09FF8E8B91099084600F09AF811
:1020B00000283FF44EAF109B6FF31E03109348E7C8
:1020C000FFFF7F7F109B6FF31E0310930123059387
:1020D000ECE66FF31E063CE76FF31E0B32E76FF37F
:1020E0001E0781E76FF31E07DEE76FF31E06D6E7D4
:1020F0006FF31E0BCEE700BF4FF0FF3C06E000BFC2
:102100004FF0010C02E000BF4FF0010C4DF804CD80
:102110004FEA40024FEA41037FEA226C18BF7FEA90
:10212000236C11D001B052EA530C18BF90EA010F92
:1021300058BFB2EB030088BFC81738BF6FEAE17021
:1021400018BF40F0010070477FEA226C02D15FEABD
:10215000402C05D17FEA236CE4D15FEA412CE1D029
:102160005DF8040B704700BF844608466146FFE7F0
:102170000FB5FFF7C9FF002848BF10F1000F0FBDD2
:102180004DF808EDFFF7F4FF0CBF012000205DF8CB
:1021900008FB00BF4DF808EDFFF7EAFF34BF012050
:1021A00000205DF808FB00BF4DF808EDFFF7E0FFE9
:1021B00094BF012000205DF808FB00BF4DF808ED3A
:1021C000FFF7D2FF94BF012000205DF808FB00BF9D
:1021D0004DF808EDFFF7C8FF34BF012000205DF87F
:1021E00008FB00BF4FEA40024FEA41037FEA226C3E
:1021F00002D15FEA402C08D17FEA236C02D15FEA6A
:10220000412C02D14FF0000070474FF001007047A1
:10221000014B1868704700BF0800002070B50D4ED4
:102220000D4D761BB61006D0002455F8043B013442
:102230009847A642F9D1094E094D761B00F000FAE5
:10224000B61006D0002455F8043B01349847A64246
:10225000F9D170BD4C2640004C264000502640006D
:102260004C264000844641EA000313F003036DD17D
:10227000403A41D351F8043B40F8043B51F8043B49
:1022800040F8043B51F8043B40F8043B51F8043B50
:1022900040F8043B51F8043B40F8043B51F8043B40
:1022A00040F8043B51F8043B40F8043B51F8043B30
:1022B00040F8043B51F8043B40F8043B51F8043B20
:1022C00040F8043B51F8043B40F8043B51F8043B10
:1022D00040F8043B51F8043B40F8043B51F8043B00
:1022E00040F8043B51F8043B40F8043B51F8043BF0
:1022F00040F8043B403ABDD2303211D351F8043B90
:1023000040F8043B51F8043B40F8043B51F8043BCF
:1023100040F8043B51F8043B40F8043B103AEDD23E
:102320000C3205D351F8043B40F8043B043AF9D28F
:10233000043208D0D2071CBF11F8013B00F8013B62
:1023400001D30B8803806046704700BF082A13D36F
:102350008B078DD010F003038AD0C3F10403D21A87
:10236000DB071CBF11F8013B00F8013B80D331F8BB
:10237000023B20F8023B7BE7043AD9D3013A11F83B
:10238000013B00F8013BF9D20B7803704B784370A6
:102390008B78837060467047830730B548D0541EF1
:1023A000002A3FD0CAB2034601E0013C3AD303F809
:1023B000012B9D07F9D1032C2DD9CDB245EA052576
:1023C0000F2C45EA054536D9A4F1100222F00F0C76
:1023D00003F1200EE6444FEA121C03F1100242E919
:1023E000045542E9025510327245F8D10CF1010250
:1023F00014F00C0F03EB021204F00F0C13D0ACF12D
:10240000040323F003030433134442F8045B9342B0
:10241000FBD10CF003042CB1CAB21C4403F8012B0D
:102420009C42FBD130BD64461346002CF4D1F9E741
:1024300003461446BFE71A46A446E0E70000803F83
:10244000000000800FB17F3F30FB48BD6DC47E3F70
:1024500036BDC8BDAC3A7D3F834016BEBE147B3F3F
:10246000C2C547BEF853783FCCCF78BE0BFA743F55
:1024700031A094BE0809713FD47CACBE5E836C3F32
:1024800015EFC3BED86B673F80E8DABE98C5613FE1
:10249000EA5AF1BE1A945B3F3D9C03BF31DB543FC7
:1024A000DA390EBF029F4D3FC07F18BF03E4453F9E
:1024B000996722BFF9AE3D3F4AEB2BBFF304353F8E
:1024C000F30435BF4AEB2B3FF9AE3DBF9967223F7E
:1024D00003E445BFC07F183F029F4DBFDA390E3F6E
:1024E00031DB54BF3D9C033F1A945BBFEA5AF13E77
:1024F00098C561BF80E8DA3ED86B67BF15EFC33E71
:102500005E836CBFD47CAC3E080971BF31A0943EA1
:102510000BFA74BFCCCF783EF85378BFC2C5473EA4
:10252000BE147BBF8340163EAC3A7DBF36BDC83D6E
:102530006DC47EBF30FB483D0FB17FBF32318D246B
:10254000000080BF30FB48BD0FB17FBF36BDC8BDA6
:102550006DC47EBF834016BEAC3A7DBFC2C547BEC8
:10256000BE147BBFCCCF78BEF85378BF31A094BEE9
:102570000BFA74BFD47CACBE080971BF15EFC3BEA3
:102580005E836CBF80E8DABED86B67BFEA5AF1BEE3
:1025900098C561BF3D9C03BF1A945BBFDA390EBF7B
:1025A00031DB54BFC07F18BF029F4DBF996722BF68
:1025B00003E445BF4AEB2BBFF9AE3DBFF30435BF83
:1025C000F30435BFF9AE3DBF4AEB2BBF03E445BF73
:1025D000996722BF029F4DBFC07F18BF31DB54BF38
:1025E000DA390EBF1A945BBF3D9C03BF98C561BF2B
:1025F000EA5AF1BED86B67BF80E8DABE5E836CBF73
:1026000015EFC3BE080971BFD47CACBE0BFA74BF12
:1026100031A094BEF85378BFCCCF78BEBE147BBF38
:10262000C2C547BEAC3A7DBF834016BE6DC47EBFF7
:1026300036BDC8BD0FB17FBF30FB48BD00000000F4
:10264000F8B500BFF8BC08BC9E4670473501400095
:10265000F8B500BFF8BC08BC9E4670470D014000AD
:1026600000093D00FF0000000C00002000000000F9
:10267000000000000000000000000000000000005A
:10268000000000000000000000000000000000004A
:10269000000000000000000000000000000000003A
:1026A000000000000000000000000000000000002A
:1026B000000000000000000000000000000000001A
:0C26C0000000000000000000000000000E
:040000050040044172
:00000001FF
